:020000040800F2
:1000000000000220150200086502000865020008D1
:100010006502000865020008650200080000000093
:100020000000000000000000000000006502000861
:100030006502000800000000650200086502000873
:1000400065020008650200086502000865020008F4
:1000500065020008650200086502000865020008E4
:1000600065020008650200086502000865020008D4
:1000700065020008650200086502000865020008C4
:1000800065020008650200086502000865020008B4
:1000900065020008650200086502000865020008A4
:1000A0006502000865020008650200086502000894
:1000B0006502000865020008650200086502000884
:1000C0006502000865020008650200086502000874
:1000D0006502000865020008650200086502000864
:1000E0006502000865020008650200086502000854
:1000F0006502000865020008650200086502000844
:100100006502000865020008650200086502000833
:100110006502000865020008650200086502000823
:100120006502000865020008650200086502000813
:100130006502000865020008650200086502000803
:1001400065020008650200086502000865020008F3
:1001500065020008650200086502000865020008E3
:1001600065020008650200086502000865020008D3
:100170006502000865020008650200080000000032
:08018000650200086502000899
:1001880010B5054C237833B9044B13B10448AFF3C9
:1001980000800123237010BD04000020000000002F
:1001A8009003000808B5034B1BB103490348AFF39C
:1001B800008008BD0000000008000020900300082F
:1001C80000B583B000F04CF80D480E4A036B0E4999
:1001D80043F008030363136843F08073002013603F
:1001E800536983F4805353610190019B8B42F7DC80
:1001F800019B01330193019B8B42F9DDF0E700BFBE
:1002080000380240000C02403F420F00DFF834D0B3
:1002180000F026F80C480D490D4A002302E0D45896
:10022800C4500433C4188C42F9D30A4A0A4C002338
:1002380001E013600432A242FBD300F01BF8FFF781
:10024800BFFF7047000002200000002004000020CB
:10025800B403000804000020B8010020FEE70000F5
:10026800034AD2F8883043F47003C2F888307047E4
:1002780000ED00E070B50D4D0D4C641BA410002678
:10028800A64209D10B4D0C4C00F07EF8641BA4105B
:100298000026A64205D170BD55F8043B98470136A3
:1002A800EEE755F8043B98470136F2E7A803000843
:1002B800A8030008A8030008B003000870477047A7
:1002C800024B13B1024800F005B870470000000067
:1002D800E9020008002301461A46184600F014B83F
:1002E80038B5074D074C641BA4101CB9BDE838404D
:1002F80000F050B8013C55F824309847F5E700BFA6
:10030800B0030008B40300082DE9F047DFF874A033
:100318000646DAF8000098460F469146FFF7CEFFEA
:10032800164B1C680CB9164C1C606568DAF800009E
:100338001F2D05DDFFF7C3FF4FF0FF30BDE8F08745
:100348009EB104EB85010122C1F88890D4F8883168
:10035800AA401343C4F88831022EC1F8088102BFAD
:10036800D4F88C311343C4F88C316B1C02356360AC
:1003780044F82570FFF7A3FF0020DFE724000020E2
:100388002800002000000020F8B500BFF8BC08BC19
:100398009E467047F8B500BFF8BC08BC9E4670473B
:0803A800C9020008AD010008C4
:0403B00089010008B7
:0403B4002000002005
:0400000508000215D8
:00000001FF
